:020000040800F2
:100000000050002015270008292500083125000888
:100010003925000841250008492500080000000096
:10002000000000000000000000000000719C0008BB
:100030005125000800000000519E00082D630008B3
:100040005D2700085D2700085D2700085D27000880
:100050005D2700085D2700085D2700085D27000870
:100060005D2700085D2700085D2700085D27000860
:100070005D2700085D2700085D2700085D27000850
:100080005D2700085D2700085D2700085D27000840
:100090005D2700085D2700085D2700085D27000830
:1000A0005D2700085D2500085D2700085D27000822
:1000B0005D2700085D2700085D2700085D27000810
:1000C0005D2700085D2700085D2700085D27000800
:1000D0005D270008712500085D2700085D270008DE
:1000E0005D2700085D2700085D270008000000006C
:1000F0000000000000000000000000000000000000
:0C01000000000000000000005FF808F1A3
:1001100010B5054C237833B9044B13B10448AFF341
:1001200000800123237010BDEC01002000000000BE
:1001300000DB000808B5034B1BB103490348AFF3CC
:10014000008008BD00000000F001002000DB000876
:1001500010F8012B11F8013B012A28BF9A42F7D071
:10016000D01A7047034613F8012B002AFBD1181A46
:100170000138704781F0004102E000BF83F0004386
:1001800030B54FEA41044FEA430594EA050F08BF32
:1001900090EA020F1FBF54EA000C55EA020C7FEAF6
:1001A000645C7FEA655C00F0E2804FEA5454D4EB73
:1001B0005555B8BF6D420CDD2C4480EA020281EA3D
:1001C000030382EA000083EA010180EA020281EA75
:1001D0000303362D88BF30BD11F0004F4FEA0131C7
:1001E0004FF4801C4CEA113102D0404261EB4101D6
:1001F00013F0004F4FEA03334CEA133302D052425C
:1002000063EB430394EA050F00F0A780A4F1010417
:10021000D5F1200E0DDB02FA0EFC22FA05F2801851
:1002200041F1000103FA0EF2801843FA05F3594137
:100230000EE0A5F120050EF1200E012A03FA0EFCB6
:1002400028BF4CF0020C43FA05F3C01851EBE371E0
:1002500001F0004507D54FF0000EDCF1000C7EEBFD
:1002600000006EEB0101B1F5801F1BD3B1F5001F3B
:100270000CD349085FEA30004FEA3C0C04F101045A
:100280004FEA445212F5800F80F09A80BCF1004F83
:1002900008BF5FEA500C50F1000041EB045141EA05
:1002A000050130BD5FEA4C0C404141EB0101013CCE
:1002B00028BFB1F5801FE9D291F0000F04BF0146BD
:1002C0000020B1FA81F308BF2033A3F10B03B3F18F
:1002D00020020CDA0C3208DD02F1140CC2F10C021F
:1002E00001FA0CF021FA02F10CE002F11402D8BF7D
:1002F000C2F1200C01FA02F120FA0CFCDCBF41EA49
:100300000C019040E41AA2BF01EB0451294330BD17
:100310006FEA04041F3C1CDA0C340EDC04F11404F4
:10032000C4F1200220FA04F001FA02F340EA0300CB
:1003300021FA04F345EA030130BDC4F10C04C4F111
:10034000200220FA02F001FA04F340EA03002946F1
:1003500030BD21FA04F0294630BD94F0000F83F43B
:10036000801306BF81F480110134013D4EE77FEA1E
:10037000645C18BF7FEA655C29D094EA050F08BF6A
:1003800090EA020F05D054EA000C04BF194610464B
:1003900030BD91EA030F1EBF0021002030BD5FEA8F
:1003A000545C05D14000494128BF41F0004130BDB7
:1003B00014F580043CBF01F5801130BD01F000450B
:1003C00045F0FE4141F470014FF0000030BD7FEA7E
:1003D000645C1ABF194610467FEA655C1CBF0B4679
:1003E000024650EA013406BF52EA033591EA030F90
:1003F00041F4002130BD00BF90F0000F04BF002188
:10040000704730B54FF4806404F132044FF00005BA
:100410004FF0000150E700BF90F0000F04BF002133
:10042000704730B54FF4806404F1320410F0004599
:1004300048BF40424FF000013EE700BF42004FEA94
:10044000E2014FEA31014FEA02701FBF12F07F4311
:1004500093F07F4F81F06051704732F07F4208BFC8
:10046000704793F07F4F04BF41F40021704730B5CF
:100470004FF4607401F0004521F000411CE700BF1B
:1004800050EA010208BF704730B54FF000050AE09E
:1004900050EA010208BF704730B511F0004502D59F
:1004A000404261EB41014FF4806404F132045FEAA1
:1004B000915C3FF4D8AE4FF003025FEADC0C18BF4A
:1004C00003325FEADC0C18BF033202EBDC02C2F13C
:1004D000200300FA03FC20FA02F001FA03FE40EACE
:1004E0000E0021FA02F11444BDE600BF70B54FF0D2
:1004F000FF0C4CF4E06C1CEA11541DBF1CEA1355B0
:1005000094EA0C0F95EA0C0F00F0DEF82C4481EA17
:10051000030621EA4C5123EA4C5350EA013518BF37
:1005200052EA033541F4801143F4801338D0A0FB24
:1005300002CE4FF00005E1FB02E506F00042E0FBD1
:1005400003E54FF00006E1FB03569CF0000F18BFD7
:100550004EF0010EA4F1FF04B6F5007F64F540747F
:1005600004D25FEA4E0E6D4146EB060642EAC62112
:1005700041EA55514FEAC52040EA5E504FEACE2E7F
:10058000B4F1FD0C88BFBCF5E06F1ED8BEF1004F82
:1005900008BF5FEA500E50F1000041EB045170BDFE
:1005A00006F0004646EA010140EA020081EA030142
:1005B000B4EB5C04C2BFD4EB0C0541EA045170BD3E
:1005C00041F480114FF0000E013C00F3AB8014F1B8
:1005D000360FDEBF002001F0004170BDC4F1000401
:1005E000203C35DA0C341BDC04F11404C4F1200582
:1005F00000FA05F320FA04F001FA05F240EA0200DD
:1006000001F0004221F0004110EBD37021FA04F612
:1006100042EB06015EEA430E08BF20EAD37070BDCC
:10062000C4F10C04C4F1200500FA04F320FA05F02B
:1006300001FA04F240EA020001F0004110EBD3702D
:1006400041F100015EEA430E08BF20EAD37070BD9D
:10065000C4F1200500FA05F24EEA020E20FA04F376
:1006600001FA05F243EA020321FA04F001F0004125
:1006700021FA04F220EA020000EBD3705EEA430E96
:1006800008BF20EAD37070BD94F0000F0FD101F0C5
:100690000046400041EB010111F4801F08BF013CFE
:1006A000F7D041EA060195F0000F18BF704703F03C
:1006B0000046520043EB030313F4801F08BF013DC3
:1006C000F7D043EA0603704794EA0C0F0CEA13557F
:1006D00018BF95EA0C0F0CD050EA410618BF52EA39
:1006E0004306D1D181EA030101F000414FF000003F
:1006F00070BD50EA410606BF1046194652EA43064D
:1007000019D094EA0C0F02D150EA013613D195EAC0
:100710000C0F05D152EA03361CBF104619460AD108
:1007200081EA030101F0004141F0FE4141F4700112
:100730004FF0000070BD41F0FE4141F4780170BD02
:1007400070B54FF0FF0C4CF4E06C1CEA11541DBF67
:100750001CEA135594EA0C0F95EA0C0F00F0A7F869
:10076000A4EB050481EA030E52EA03354FEA013196
:1007700000F088804FEA03334FF0805545EA1313A9
:1007800043EA12634FEA022245EA111545EA106571
:100790004FEA00260EF000419D4208BF964244F108
:1007A000FD0404F5407402D25B084FEA3202B61A27
:1007B00065EB03055B084FEA32024FF480104FF4FB
:1007C000002CB6EB020E75EB030E22BFB61A75466F
:1007D00040EA0C005B084FEA3202B6EB020E75EB02
:1007E000030E22BFB61A754640EA5C005B084FEA6A
:1007F0003202B6EB020E75EB030E22BFB61A754637
:1008000040EA9C005B084FEA3202B6EB020E75EB41
:10081000030E22BFB61A754640EADC0055EA060E02
:1008200018D04FEA051545EA16754FEA06164FEA45
:10083000C30343EA52734FEAC2025FEA1C1CC0D1F1
:1008400011F4801F0BD141EA00014FF000004FF07E
:10085000004CB6E711F4801F04BF01430020B4F13F
:10086000FD0C88BFBCF5E06F3FF6AFAEB5EB030CF7
:1008700004BFB6EB020C5FEA500C50F1000041EBF4
:10088000045170BD0EF0004E4EEA113114EB5C04C1
:10089000C2BFD4EB0C0541EA045170BD41F4801194
:1008A0004FF0000E013C90E645EA060E8DE60CEA9C
:1008B000135594EA0C0F08BF95EA0C0F3FF43BAFB9
:1008C00094EA0C0F0AD150EA01347FF434AF95EA70
:1008D0000C0F7FF425AF104619462CE795EA0C0F54
:1008E00006D152EA03353FF4FDAE1046194622E721
:1008F00050EA410618BF52EA43067FF4C5AE50EAFB
:1009000041047FF40DAF52EA43057FF4EBAE12E7EA
:100910004FF0FF3C06E000BF4FF0010C02E000BFCB
:100920004FF0010C4DF804CD4FEA410C7FEA6C5CAE
:100930004FEA430C18BF7FEA6C5C1BD001B050EA51
:10094000410C0CBF52EA430C91EA030F02BF90EA3C
:10095000020F0020704710F1000F91EA030F58BFFB
:10096000994208BF90422CBFD8176FEAE37040F05D
:10097000010070474FEA410C7FEA6C5C02D150EAFB
:10098000013C07D14FEA430C7FEA6C5CD6D152EAB6
:10099000033CD3D05DF8040B704700BF844610467B
:1009A00062468C461946634600E000BF01B5FFF77A
:1009B000B7FF002848BF10F1000F01BD4DF808ED4A
:1009C000FFF7F4FF0CBF012000205DF808FB00BF1B
:1009D0004DF808EDFFF7EAFF34BF012000205DF875
:1009E00008FB00BF4DF808EDFFF7E0FF94BF0120C2
:1009F00000205DF808FB00BF4DF808EDFFF7CEFFC3
:100A000094BF012000205DF808FB00BF4DF808ED01
:100A1000FFF7C4FF34BF012000205DF808FB00BFD2
:100A20004FEA410C7FEA6C5C02D150EA013C0AD1EA
:100A30004FEA430C7FEA6C5C02D152EA033C02D1DC
:100A40004FF0000070474FF0010070474FEA41023D
:100A500012F5001215D211D56FF47873B3EB625210
:100A600012D94FEAC12343F0004343EA505311F037
:100A7000004F23FA02F018BF404270474FF00000C9
:100A8000704750EA013005D111F0004008BF6FF007
:100A9000004070474FF00000704700BF4FEA41022E
:100AA000B2F1E04324BFB3F5001CDCF1FE5C0DD9CC
:100AB00001F0004C4FEAC0024CEA5070B2F1004F16
:100AC00040EB830008BF20F00100704711F0804F19
:100AD00021D113F13872BCBF01F00040704741F4DE
:100AE00080114FEA5252C2F11802C2F1200C10FAE2
:100AF0000CF320FA02F018BF40F001004FEAC123C6
:100B00004FEAD32303FA0CFC40EA0C0023FA02F369
:100B10004FEA4303CCE77FEA625307D150EA01333F
:100B20001EBF4FF0FE4040F44000704701F000400F
:100B300040F0FE4040F40000704700BF80F00040ED
:100B400002E000BF81F0004142001FBF5FEA4103A5
:100B500092EA030F7FEA226C7FEA236C6AD04FEAA5
:100B60001262D2EB1363C1BFD218414048404140EA
:100B7000B8BF5B42192B88BF704710F0004F40F49C
:100B8000000020F07F4018BF404211F0004F41F4B8
:100B9000000121F07F4118BF494292EA030F3FD084
:100BA000A2F1010241FA03FC10EB0C00C3F1200397
:100BB00001FA03F100F0004302D5494260EB400026
:100BC000B0F5000F13D3B0F1807F06D340084FEA91
:100BD000310102F10102FE2A51D2B1F1004F40EB86
:100BE000C25008BF20F0010040EA030070474900EE
:100BF00040EB0000013A28BFB0F5000FEDD2B0FA8B
:100C000080FCACF1080CB2EB0C0200FA0CF0AABFAD
:100C100000EBC25052421843BCBFD040184370474B
:100C200092F0000F81F4000106BF80F40000013251
:100C3000013BB5E74FEA41037FEA226C18BF7FEA28
:100C4000236C21D092EA030F04D092F0000F08BF6A
:100C50000846704790EA010F1CBF0020704712F051
:100C60007F4F04D1400028BF40F00040704712F190
:100C700000723CBF00F50000704700F0004343F0F5
:100C8000FE4040F4000070477FEA226216BF08462B
:100C90007FEA23630146420206BF5FEA412390EAEE
:100CA000010F40F4800070474FF0000304E000BFE4
:100CB00010F0004348BF40425FEA000C08BF704795
:100CC00043F0964301464FF000001CE050EA010259
:100CD00008BF70474FF000030AE000BF50EA01026E
:100CE00008BF704711F0004302D5404261EB41015B
:100CF0005FEA010C02BF84460146002043F0B64380
:100D000008BFA3F18053A3F50003BCFA8CF2083AA4
:100D1000A3EBC25310DB01FA02FC634400FA02FCAD
:100D2000C2F12002BCF1004F20FA02F243EB0200B4
:100D300008BF20F00100704702F1200201FA02FC16
:100D4000C2F1200250EA4C0021FA02F243EB020009
:100D500008BF20EADC70704780B586B002AF7860CB
:100D60000E4A07F10C031268114619800233120C67
:100D70001A707B6818687B681B79194607F10C02AA
:100D80004FF0FF330093032302F0B2F9142001F077
:100D900019FD00BF1037BD4680BD00BF18DB00083D
:100DA00080B58AB002AFF860B9607A60254A07F171
:100DB00014031268114619800233120C1A70FB6872
:100DC0001868FB681B79194607F114024FF0FF33CE
:100DD0000093032302F08CF9502001F0F3FCFB6830
:100DE0001868FB681B79194607F118024FF0FF33AA
:100DF0000093062302F07AFA0346002B01D0002369
:100E00001CE03B7E5BB2002B01DA002316E07B7E08
:100E10001A03BB7E1B011343FA7E1209D2B21A4396
:100E2000BB681A60FB7E1B0403F470223B7F1B022D
:100E300013437A7F1A437B681A60012318462037D0
:100E4000BD4680BD1CDB000880B582B000AF786075
:100E50007868FFF729FF03461846FFF7EFFA4FF0CF
:100E60000002104BFFF76CFC02460B461046194679
:100E70004FF000020C4BFFF739FB02460B461046C1
:100E800019464FF00002094BFFF778F902460B466E
:100E900010461946FFF702FE034618460837BD46BE
:100EA00080BD00BF000030410000694000004940A3
:100EB00080B582B000AF78607868FFF7F5FE034632
:100EC0001846FFF7BBFA4FF000020B4BFFF738FC58
:100ED00002460B46104619464FF00002074BFFF73B
:100EE00005FB02460B4610461946FFF7D7FD0346A1
:100EF00018460837BD4680BD00003041000059400B
:100F000080B586B002AF78600B46FB70FB7823F0AB
:100F10000F03FB73FB781B01BB73FB7B43F00C03DC
:100F2000DBB23B72FB7B43F00803DBB27B72BB7B23
:100F300043F00C03DBB2BB72BB7B43F00803DBB2B4
:100F4000FB727B6818687B681B79194607F10802F9
:100F500064230093042302F0CBF800BF1037BD4692
:100F600080BD80B586B002AF78600B46FB70FB7821
:100F700023F00F03FB73FB781B01BB73FB7B43F078
:100F80000D03DBB23B72FB7B43F00903DBB27B72E8
:100F9000BB7B43F00D03DBB2BB72BB7B43F00903A9
:100FA000DBB2FB727B6818687B681B79194607F116
:100FB000080264230093042302F09AF800BF10375C
:100FC000BD4680BD80B584B000AF78608021786870
:100FD000FFF796FF0023FB6006E020217868FFF70B
:100FE000C0FFFB680133FB60FB684F2BF5DD00BFE2
:100FF00000BF1037BD4680BD80B586B000AFF86039
:10100000B9607A607B68032B24D801A252F823F0E0
:10101000211000082B100008351000083F100008B0
:10102000BB68DBB2803BFB750EE0BB68DBB2403BCC
:10103000FB7509E0BB68DBB26C3BFB7504E0BB6889
:10104000DBB22C3BFB7500BFFB7D1946F868FFF750
:1010500057FF00E000BF1837BD4680BD80B582B0A5
:1010600000AF7860322001F0ADFB30217868FFF7E7
:1010700047FF052001F0A6FB30217868FFF740FF0D
:10108000012001F09FFB30217868FFF739FF0A202B
:1010900001F098FB20217868FFF732FF0A2001F069
:1010A00091FB28217868FFF72BFF012001F08AFBD4
:1010B00008217868FFF724FF012001F083FB01215C
:1010C0007868FFF71DFF022001F07CFB062178689D
:1010D000FFF716FF012001F075FB0C217868FFF780
:1010E0000FFF00BF0837BD4680BD80B582B000AF9E
:1010F0007860396007E03B685A1C3A601B781946F3
:101100007868FFF72EFF3B681B78002BF3D100BFF8
:1011100000BF0837BD4680BD80B582B000AF7860A3
:10112000391D0A230122044804F0BCFA7B681846E2
:101130000837BD4680BD00BFF802002080B582B0F0
:1011400000AF78607B681B681B4A934230D11B4B11
:101150001B780D2B18D01A4B1B781E2B0BD8184B55
:101160001B785A1CD1B2164A11701A46134B1978C3
:10117000144B995417E020220021124809F0D1FEA7
:101180000F4B00221A700EE00D4B1B781A460D4BC8
:10119000002199540A4B00221A700B4B1B68012145
:1011A000184605F039FA01220449084804F005FB05
:1011B00000BF0837BD4680BD0038014088030020CD
:1011C000890300208C03002074030020F802002013
:1011D00080B483B000AF0346FB71FB79642B01D967
:1011E0006423FB71044B1B68FA79DA6300BF0C3788
:1011F000BD4680BC704700BFB002002080B582B001
:1012000000AF0346FB71FB79022B0AD101220121B9
:101210000C4801F011FE002202210A4801F00CFEE8
:101220000CE0FB79032B09D100220121054801F0D4
:1012300003FE01220221034801F0FEFD00BF083732
:10124000BD4680BD0008014080B500AF0020FFF71B
:10125000BFFF00220121054801F0EEFD002202211E
:10126000024801F0E9FD00BF80BD00BF0008014059
:1012700080B500AF01F074FA00F0E6F800F024FA4F
:1012800000F0F8F900F026F900F052F900F07EF9CC
:10129000444B454A1A60434B70221A714148FFF78C
:1012A0005BFD322001F08EFA404B414A1A603F4B01
:1012B0004E221A713D48FFF7D1FE3C48FFF782FEEF
:1012C00008213C4803F03EFB01223B493B4804F027
:1012D00074FA05F045F83A4805F076FA0346394ABB
:1012E0001360394805F070FA0346384A13603848ED
:1012F00005F06AFA0346374A1360374805F064FA86
:101300000346364A1360364805F05EFA0346354A0E
:101310001360354805F058FA0346344A1360344ADE
:101320000821052005F05EFB0346324A1360324A6D
:101330000021324805F071F80346314A1360314A02
:101340000021314805F069F80346304A1360304AFD
:101350000021304805F061F803462F4A13602F4AF8
:1013600000212F4805F059F803462E4A13602E4AF3
:1013700000212E4805F051F803462D4A13602D4AEE
:1013800000212D4805F049F803462C4A13602C48EB
:1013900005F002F903462B4A136005F003F800BF7D
:1013A000FDE700BF780300205C02002080030020DE
:1013B00008020020B002002088030020F80200206C
:1013C000DCDD00085C030020ECDD00086003002089
:1013D000FCDD0008640300200CDE00086803002028
:1013E0001CDE00086C0300202CDE000870030020C7
:1013F000C4DD000858030020ECDC00085D1700087D
:101400004003002010DD00089D190008440300205F
:1014100034DD0008851A00084803002058DD000864
:10142000251B00084C0300207CDD0008E11C00089F
:1014300050030020A0DD0008A11D00085403002077
:101440003CDE00087403002080B590B000AF07F1C7
:10145000180328220021184609F063FD3B1D0022D5
:101460001A605A609A60DA601A610123BB614FF416
:101470008033FB6100233B620123BB6202237B6359
:101480004FF48033BB634FF4E013FB6307F11803A1
:10149000184602F01DFD0346002B01D000F088FE27
:1014A0000F237B600223BB600023FB604FF480634B
:1014B0003B6100237B613B1D0221184602F08AFF3D
:1014C0000346002B01D000F073FE00BF4037BD463D
:1014D00080BD000080B500AF124B134A1A60114B5B
:1014E000124A5A600F4B00229A600E4B0022DA60BB
:1014F0000C4B4FF480421A610A4B00225A61094B8F
:1015000000229A61074B0022DA61064B00221A6220
:10151000044801F0A9FC0346002B01D000F048FE6E
:1015200000BF80BD0802002000540040A0860100DA
:1015300080B500AF124B134A1A60114B124A5A6021
:101540000F4B00229A600E4B0022DA600C4B4FF4D6
:1015500080421A610A4B00225A61094B00229A61AB
:10156000074B0022DA61064B00221A62044801F0A0
:101570007BFC0346002B01D000F01AFE00BF80BDAB
:101580005C02002000580040801A060080B58EB032
:1015900000AF07F1280300221A605A609A60DA60EF
:1015A00007F1200300221A605A603B1D00221A60D6
:1015B0005A609A60DA601A615A619A612C4B4FF056
:1015C00080421A602A4B47225A60294B00229A60B7
:1015D000274B6422DA60264B00221A61244B00223A
:1015E0009A61234803F0B4F80346002B01D000F0C1
:1015F000DFFD4FF48053BB6207F1280319461C48F6
:1016000003F0F4FB0346002B01D000F0D1FD184895
:1016100003F040F90346002B01D000F0C9FD002380
:101620003B6200237B6207F120031946104803F058
:1016300079FF0346002B01D000F0BAFD60237B60E8
:101640000023BB600023FB6000237B613B1D08225D
:101650001946074803F008FB0346002B01D000F0B1
:10166000A7FD034800F06AFE00BF3837BD4680BDC5
:10167000B002002080B500AF114B124A1A60104B27
:101680004FF4E1325A600E4B00229A600C4B00225C
:10169000DA600B4B00221A61094B0C225A61084B8D
:1016A00000229A61064B0022DA61054803F0AAFF86
:1016B0000346002B01D000F07BFD00BF80BD00BFC2
:1016C000F80200200038014080B588B000AF07F173
:1016D000100300221A605A609A60DA601D4B9B6901
:1016E0001C4A43F0200393611A4B9B6903F02003CB
:1016F000FB60FB68174B9B69164A43F00403936138
:10170000144B9B6903F00403BB60BB68114B9B69DE
:10171000104A43F0080393610E4B9B6903F00803E2
:101720007B607B68002203210B4801F085FB0323CB
:101730003B6101237B610023BB610223FB6107F155
:1017400010031946044801F0F3F900BF2037BD46E5
:1017500080BD00BF001002400008014080B586B087
:1017600000AF7860804B186807F10C014FF0FF3331
:10177000002205F00BFA78617B69002BF2D13B7BEC
:10178000082B00F2EC8001A252F823F0B1170008F8
:101790001518000879180008A31800083F19000858
:1017A000471900084F190008571900085F19000869
:1017B0003B69002B02D0012B14D02AE06B4B1B6835
:1017C0004FF0FF31184605F085F878617B69002BF2
:1017D0001CD1674B00221A70644B1B68184605F039
:1017E000C4F813E0614B1B684FF0FF31184605F059
:1017F00071F878617B69002B0AD15D4B01221A7068
:101800005A4B1B68184605F0B0F801E000BFA9E08C
:1018100000BFA7E03B69022B02D0032B14D02AE0C3
:10182000544B1B684FF0FF31184605F053F87861B0
:101830007B69002B1CD1504B02221A704D4B1B6848
:10184000184605F092F813E04A4B1B684FF0FF3141
:10185000184605F03FF878617B69002B0AD1464BAA
:1018600003221A70434B1B68184605F07EF801E00E
:1018700000BF77E000BF75E0404B1B684FF0FF31C1
:10188000184605F027F878617B69002B69D13B6920
:10189000DAB23B4B1A70394B1B68184605F065F8F5
:1018A0005FE03B69062B2ED0062B40D8042B02D0DC
:1018B000052B14D03BE0334B1B684FF0FF3118462B
:1018C00005F008F878617B69002B32D12E4B042299
:1018D0001A702C4B1B68184605F047F829E0294B75
:1018E0001B684FF0FF31184604F0F4FF78617B6904
:1018F000002B20D1244B05221A70224B1B6818465E
:1019000005F033F817E01F4B1B684FF0FF31184606
:1019100004F0E0FF78617B69002B0ED11A4B0622A0
:101920001A70184B1B68184605F01FF805E000BF39
:1019300018E000BF16E000BF14E000BF12E03B69F2
:10194000124A13600EE03B69114A13600AE03B69DA
:10195000104A136006E03B690F4A136002E000BFC3
:1019600000E700BFFEE600BF580300207003002020
:10197000100000206C0300201100002068030020EC
:10198000AC030020600300201200002000000020B3
:1019900004000020080000200C00002080B586B064
:1019A00000AF786004F024FD38612E4B1B684FF0C7
:1019B000FF31184604F08EFFF860FB68002B07D15A
:1019C000294B1B78FB75274B1B68184604F0CDFF8D
:1019D000264B1B684FF0FF31184604F07BFFF86080
:1019E000FB68002B07D1224B1B787B751F4B1B68B4
:1019F000184604F0BAFF1F4B1B684FF0FF31184622
:101A000004F068FFF860FB68002B07D11A4B1B78C5
:101A1000BB75184B1B68184604F0A7FFFB7D002B15
:101A200008D17B7D1846FFF7E9FBBB7D1846FFF721
:101A3000CFFB04E0FB7D012B01D1FFF705FC0F4B31
:101A40001B684FF47A7202FB03F30D4AA2FB0323D7
:101A50009A093B691344184604F071FD04F0C8FC70
:101A60003861A2E770030020100000206C03002002
:101A70001100002068030020AC03002000000020BB
:101A8000D34D621080B588B000AF786004F0B0FC30
:101A9000F86107F10C0207F1080319461C48FFF72B
:101AA0007FF90346002B1FD0FB681846FFF7CCF9DF
:101AB000B861BB681846FFF7FBF97861154B1B68E6
:101AC0004FF0FF31184604F005FF38613B69002BE9
:101AD0000AD1114ABB6913600F4A7B6953600D4BF1
:101AE0001B68184604F041FF0C4B1B684FF47A72D8
:101AF00002FB03F30A4AA2FB03239A09FB6913447E
:101B0000184604F01CFD04F073FCF861C1E700BF47
:101B1000780300205C030020B003002004000020B4
:101B2000D34D621080B594B002AF786004F060FCD1
:101B30003864614B1B684FF0FF31184604F0CAFE51
:101B4000F863FB6B002B08D15C4B1B7887F84730A0
:101B5000594B1B68184604F008FF594B1B684FF09F
:101B6000FF31184604F0B6FEF863FB6B002B0BD177
:101B7000544A07F1340392E8030083E80300504B12
:101B80001B68184604F0F1FE97F84730062B5CD02E
:101B9000062B7DDC042B02D0052B33D078E000220D
:101BA00000214948FFF728FA7B6B1846FEF746FCF0
:101BB00002460B4607F12000CDE90023434A1121DC
:101BC00009F008F907F1200319463F48FFF78DFA9D
:101BD000012200213C48FFF70FFABB6B1846FEF7C5
:101BE0002DFC02460B4607F10C00CDE90023384AD4
:101BF000112109F0EFF807F10C0319463248FFF7FD
:101C000074FA46E0002200212F48FFF7F5F97B6BBC
:101C10001846FEF713FC02460B4607F12000CDE9FB
:101C200000232A4A112109F0D5F807F120031946AB
:101C30002548FFF75AFA012200212348FFF7DCF973
:101C400024492148FFF751FA23E0002200211E48D1
:101C5000FFF7D2F9BB6B1846FEF7F0FB02460B46C6
:101C600007F12000CDE90023194A112109F0B2F84B
:101C700007F1200319461448FFF737FA0122002123
:101C80001148FFF7B9F913490F48FFF72EFA00E0A2
:101C900000BF114B1B684FF47A7202FB03F30F4A2B
:101CA000A2FB03239A093B6C1344184604F047FC3B
:101CB00004F09EFB38643CE7600300201200002023
:101CC0005C030020B003002080030020D4DB000868
:101CD000E4DB0008F8DB000808000020D34D6210A8
:101CE000B0B588B002AF786004F082FB7861264B13
:101CF0001B684FF0FF31184604F0ECFD38613B697A
:101D0000002B0BD1214A07F1080392E8030083E876
:101D100003001D4B1B68184604F027FE1C4B1B6874
:101D20004FF0FF31184604F0D5FD38613B69002BB8
:101D300017D1BB681846FEF781FB04460D46FB68C9
:101D40001846FEF77BFB02460B46CDE900232246F0
:101D50002B46104809F02CF80D4B1B68184604F070
:101D600004FE0D4B1B684FF47A7202FB03F30B4A1F
:101D7000A2FB03239A097B691344184604F0DFFB96
:101D800004F036FB7861B2E75C030020B00300206A
:101D9000640300200CDC00080C000020D34D62100E
:101DA00080B58EB000AF7860AA4B18684FF0FF3353
:101DB0000222012104F0A3FCA64B1B680121184656
:101DC00004F06CFC1F22A449A44809F0B2F8A34B0C
:101DD0000022DA77082387F8203007237B629E4BA6
:101DE0007B6302E07B6B01337B637B6B1B78202B77
:101DF000F8D07B6B1B78092BF4D0786BFEF7B2F927
:101E00000346013B7A6B13443B6305E03B6B0022C6
:101E10001A703B6B013B3B633A6B7B6B9A420FD969
:101E20003B6B1B780A2BF1D03B6B1B780D2BEDD055
:101E30003B6B1B78202BE9D03B6B1B78092BE5D043
:101E40007B6B1B78212B40F06C817B6B01337B63B8
:101E500007F11C031A468249786B09F0A5F8F8626D
:101E6000FB6A002B00F05D817E49F86AFEF770F98D
:101E70000346002B23D1002387F8203007F11C03F1
:101E80001A467749002009F08FF8F862FB6A002BA8
:101E900000F047817449F86AFEF75AF90346002BAF
:101EA00002D100237B623CE17049F86AFEF750F9E9
:101EB0000346002B40F0358101237B6231E16C4900
:101EC000F86AFEF745F90346002B23D1012387F872
:101ED000203007F11C031A466149002009F064F81C
:101EE000F862FB6A002B00F01C816249F86AFEF779
:101EF0002FF90346002B02D102237B6211E15E49D8
:101F0000F86AFEF725F90346002B40F00A81032307
:101F10007B6206E15949F86AFEF71AF90346002B7D
:101F20001CD1022387F8203007F11C031A464C49C4
:101F3000002009F039F8F862FB6A002B00F0F1800C
:101F400007F118031A464E49F86A08F079FF03466C
:101F5000012B40F0E680BB697B62E2E04949F86A08
:101F6000FEF7F6F80346002B2DD1032387F8203027
:101F700007F11C031A463A49002009F015F8F862E7
:101F8000FB6A002B00F0CD803F49F86AFEF7E0F8CD
:101F90000346002B02D104237B62C2E03B49F86A6E
:101FA000FEF7D6F80346002B02D105237B62B8E08A
:101FB0003749F86AFEF7CCF80346002B40F0B180B1
:101FC00006237B62ADE03349F86AFEF7C1F80346A9
:101FD000002B1CD1042387F8203007F11C031A467C
:101FE0001F49002008F0E0FFF862FB6A002B00F0B8
:101FF000988007F114031A462149F86A08F020FF77
:102000000346012B40F08D807B697B6289E0224989
:10201000F86AFEF79DF80346002B3FD1052387F8A9
:10202000203007F11C031A460D49002008F0BCFFC0
:10203000F862FB6A002B74D007F110031A461049AE
:10204000F86A08F0FDFE0346012B6AD13B697B620A
:1020500067E000BF740300208C030020B803002059
:102060003CDC000840DC000848DC00084CDC0008D0
:1020700050DC000858DC00085CDC000860DC00086C
:1020800068DC00086CDC000874DC000878DC000800
:1020900080DC000888DC000890DC00083349F86A1E
:1020A000FEF756F80346002B1AD1062387F8203096
:1020B00007F11C031A462E49002008F075FFF8624C
:1020C000FB6A002B2DD007F10C031A462949F86A48
:1020D00008F0B6FE0346012B23D1FB687B6220E0AB
:1020E0002549F86AFEF734F80346002B19D1072377
:1020F00087F8203007F11C031A461D49002008F01C
:1021000053FFF862FB6A002B0BD007F108031A4655
:102110001849F86A08F094FE0346012B01D1BB6808
:102120007B62164B186807F120014FF0FF33002245
:1021300004F0CCFCB862BB6A002B7FF435AE104BC8
:102140001B684FF0FF31184604F0C4FBB862BB6A4D
:10215000002B7FF429AE0B490B4808F029FE084BF1
:102160001B68184604F001FC1EE600BF98DC00085E
:102170003CDC000868DC0008A0DC000858030020F4
:1021800064030020B8030020A8DC000880B582B0FA
:1021900000AF78607B681B68044A934201D100F06D
:1021A000F5FA00BF0837BD4680BD00BF002C0140D6
:1021B00080B400AF72B600BF00BFFDE780B584B049
:1021C00000AF184B9B69174A43F001039361154B0D
:1021D0009B6903F00103BB60BB68124BDB69114ACA
:1021E00043F08053D3610F4BDB6903F080537B6076
:1021F0007B6800220F216FF0010000F0BCFB0A4B4E
:102200005B68FB60FB6823F0E063FB60FB6843F006
:102210000073FB60044AFB68536000BF1037BD4683
:1022200080BD00BF001002400000014080B58AB0B0
:1022300000AF786007F1180300221A605A609A60B4
:10224000DA607B681B682B4A934224D12A4B9B6936
:10225000294A43F008039361274B9B6903F0080365
:102260007B617B69C023BB611223FB6103237B621B
:1022700007F118031946214800F05AFC1E4BDB6990
:102280001D4A43F40013D3611B4BDB6903F40013B5
:102290003B613B6929E07B681B68194A934224D162
:1022A000154B9B69144A43F008039361124B9B69D9
:1022B00003F00803FB60FB684FF44063BB6112232B
:1022C000FB6103237B6207F1180319460B4800F0FA
:1022D0002FFC094BDB69084A43F48003D361064BAA
:1022E000DB6903F48003BB60BB6800BF2837BD46D1
:1022F00080BD00BF0054004000100240000C0140AF
:102300000058004080B485B000AF78607B681B68DF
:10231000B3F1804F0BD1084BDB69074A43F001034F
:10232000D361054BDB6903F00103FB60FB6800BF71
:102330001437BD4680BC70470010024080B588B09D
:1023400000AF786007F1100300221A605A609A60AB
:10235000DA607B681B68B3F1804F17D10D4B9B6926
:102360000C4A43F0040393610A4B9B6903F0040396
:10237000FB60FB6804233B6102237B610223FB615A
:1023800007F110031946044800F0D2FB00BF2037C4
:10239000BD4680BD001002400008014080B588B0F5
:1023A00000AF786007F1100300221A605A609A604B
:1023B000DA607B681B68204A934239D11F4B9B69C6
:1023C0001E4A43F4804393611C4B9B6903F4804392
:1023D000FB60FB68194B9B69184A43F00403936147
:1023E000164B9B6903F00403BB60BB684FF400739A
:1023F0003B6102237B610323FB6107F11003194654
:102400000F4800F095FB4FF480633B6100237B6134
:102410000023BB6107F110031946094800F088FB4F
:1024200000220521252000F0A6FA252000F0BFFAA1
:1024300000BF2037BD4680BD00380140001002407B
:102440000008014080B58CB000AF78600023BB620B
:1024500000237B62002387F82F302E4B9B692D4A87
:1024600043F4006393612B4B9B6903F40063BB60EF
:10247000BB6807F10C0207F110031146184602F081
:1024800019F902F003F9B862BB6A234AA2FB0323DD
:102490009B0C013B7B62214B214A1A601F4B40F28F
:1024A000E732DA601D4A7B6A53601C4B00221A61D6
:1024B0001A4B00229A60194B00229A61174802F0C9
:1024C00047F9034687F82F3097F82F30002B1BD1A0
:1024D000124802F08DF9034687F82F3097F82F3015
:1024E000002B11D1192000F062FA7B680F2B08D85D
:1024F00000227968192000F03EFA0A4A7B681360CE
:1025000002E0012387F82F3097F82F301846303734
:10251000BD4680BD0010024083DE1B43D80300206F
:10252000002C01401800002080B400AF00BFFDE780
:1025300080B400AF00BFFDE780B400AF00BFFDE78F
:1025400080B400AF00BFFDE780B400AF00BFFDE77F
:1025500080B400AF00BFBD4680BC704780B500AFFF
:10256000024802F091FA00BF80BD00BFD8030020EE
:1025700080B500AF024803F045F900BF80BD00BF41
:10258000F802002080B400AF01231846BD4680BC8D
:10259000704780B582B000AF7860396008F0B0FD58
:1025A000034616221A604FF0FF3318460837BD461F
:1025B00080BD80B582B000AF78604FF0FF317868A1
:1025C000FFF7E7FF00BFFDE780B586B000AFF8601A
:1025D000B9607A6000237B610AE0AFF300800146B6
:1025E000BB685A1CBA60CAB21A707B6901337B613E
:1025F0007A697B689A42F0DB7B6818461837BD46DB
:1026000080BD80B586B000AFF860B9607A60002305
:102610007B6109E0BB685A1CBA601B781846FEF75C
:102620007BFD7B6901337B617A697B689A42F1DBD0
:102630007B6818461837BD4680BD80B483B000AFB4
:1026400078604FF0FF3318460C37BD4680BC7047AA
:1026500080B483B000AF786039603B684FF40052BB
:102660005A60002318460C37BD4680BC704780B4C2
:1026700083B000AF7860012318460C37BD4680BC9C
:10268000704780B485B000AFF860B9607A6000230D
:1026900018461437BD4680BC7047000080B586B030
:1026A00000AF7860144A154BD31A7B617B693B619C
:1026B000134B1B68002B02D1114B124A1A60104BAE
:1026C0001A687B6813443A699A4207D208F018FDE9
:1026D00003460C221A604FF0FF3309E0084B1B68D9
:1026E000FB60074B1A687B681344054A1360FB685C
:1026F00018461837BD4680BD005000200004000079
:10270000200400206033002080B400AF00BFBD462D
:1027100080BC7047FFF7F8FF0B480C490C4A0023B8
:1027200002E0D458C4500433C4188C42F9D3094A87
:10273000094C002301E013600432A242FBD308F0ED
:10274000E5FCFEF795FD704700000020EC0100203D
:1027500014E20008EC0100205C330020FEE70000DA
:1027600080B500AF084B1B68074A43F010031360A5
:10277000032000F0F5F80F20FFF764FEFFF71EFDC1
:102780000023184680BD00BF0020024080B400AF87
:10279000054B1B781A46054B1B681344034A13600C
:1027A00000BFBD4680BC70471C00002024040020F0
:1027B00080B400AF024B1B681846BD4680BC704712
:1027C0002404002080B584B000AF7860FFF7F0FFEC
:1027D000B8607B68FB60FB68B3F1FF3F05D00A4B34
:1027E0001B781A46FB681344FB6000BFFFF7E0FF4D
:1027F0000246BB68D31AFA689A42F7D800BF00BFF6
:102800001037BD4680BD00BF1C00002080B485B0DD
:1028100000AF78607B6803F00703FB600C4BDB685C
:10282000BB60BA684FF6FF031340BB60FB681A0237
:10283000BB68134343F0BF6343F40033BB60044AF7
:10284000BB68D36000BF1437BD4680BC704700BF73
:1028500000ED00E080B400AF044BDB681B0A03F01E
:1028600007031846BD4680BC704700BF00ED00E07E
:1028700080B483B000AF0346FB7197F90730002B9B
:102880000BDBFB7903F01F02064997F907305B0960
:10289000012000FA02F241F8232000BF0C37BD46A8
:1028A00080BC704700E100E080B483B000AF034615
:1028B0003960FB7197F90730002B0ADB3B68DAB20D
:1028C0000C4997F907301201D2B20B4483F8002368
:1028D0000AE03B68DAB20849FB7903F00F03043BD6
:1028E0001201D2B20B441A7600BF0C37BD4680BC31
:1028F000704700BF00E100E000ED00E080B489B067
:1029000000AFF860B9607A60FB6803F00703FB6111
:10291000FB69C3F10703042B28BF0423BB61FB69D8
:102920000433062B02D9FB69033B00E000237B61E3
:102930004FF0FF32BB6902FA03F3DA43BB681A4077
:102940007B699A404FF0FF317B6901FA03F3D94369
:102950007B680B40134318462437BD4680BC704744
:1029600080B582B000AF78607868FFF74FFF00BF96
:102970000837BD4680BD80B586B000AF0346B9605C
:102980007A60FB7300237B61FFF764FF78617A68EC
:10299000B9687869FFF7B2FF024697F90F30114620
:1029A0001846FFF781FF00BF1837BD4680BD80B5D0
:1029B00082B000AF0346FB7197F907301846FFF766
:1029C00057FF00BF0837BD4680BD80B485B000AF5B
:1029D00078600023FB737B6893F82130DBB2022B15
:1029E00008D07B6804229A637B68002283F8202049
:1029F000012320E07B681B681A687B681B6822F053
:102A00000E021A607B681B681A687B681B6822F0DC
:102A100001021A607B681A6C7B68DB6B012101FA8A
:102A200002F25A607B68012283F821207B68002231
:102A300083F82020FB7B18461437BD4680BC7047C6
:102A400080B584B000AF78600023FB737B6893F897
:102A50002130DBB2022B05D07B6804229A6301236C
:102A6000FB7351E07B681B681A687B681B6822F067
:102A70000E021A607B681B681A687B681B6822F06C
:102A800001021A607B681B68224A934229D07B6846
:102A90001B68214A934222D07B681B681F4A9342DD
:102AA0001AD07B681B681E4A934212D07B681B6851
:102AB0001C4A93420AD07B681B681B4A934202D18E
:102AC0004FF480130EE04FF080730BE04FF480332F
:102AD00008E04FF4805305E04FF4807302E01023C8
:102AE00000E00123114A53607B68012283F8212012
:102AF0007B68002283F820207B685B6B002B03D06F
:102B00007B685B6B78689847FB7B18461037BD463F
:102B100080BD00BF080002401C000240300002409F
:102B200044000240580002406C0002400000024095
:102B300080B48BB000AF7860396000237B620023E3
:102B40003B6269E101227B6A02FA03F3FB613B68A5
:102B50001B68FA691340BB61BA69FB699A4240F08D
:102B600058813B685B689A4A93425ED0984A934288
:102B700075D8984A934258D0964A93426FD8964A4D
:102B8000934252D0944A934269D8944A93424CD08B
:102B9000924A934263D8924A934246D0904A9342D3
:102BA0005DD8122B2AD8122B59D801A252F823F043
:102BB0002B2C0008052C0008172C0008592C0008A5
:102BC0005F2C00085F2C00085F2C00085F2C0008B9
:102BD0005F2C00085F2C00085F2C00085F2C0008A9
:102BE0005F2C00085F2C00085F2C00085F2C000899
:102BF0005F2C00080D2C0008212C0008794A934214
:102C000013D02CE03B68DB683B6229E03B68DB6863
:102C100004333B6224E03B68DB6808333B621FE01F
:102C20003B68DB680C333B621AE03B689B68002B17
:102C300002D104233B6213E03B689B68012B05D162
:102C400008233B627B68FA691A6109E008233B624A
:102C50007B68FA695A6103E000233B6200E000BF31
:102C6000BB69FF2B01D87B6801E07B6804337B6183
:102C7000BB69FF2B02D87B6A9B0002E07B6A083BA2
:102C80009B003B617B691A680F213B6901FA03F3E2
:102C9000DB431A40396A3B6901FA03F31A437B6943
:102CA0001A603B685B6803F08053002B00F0B18032
:102CB0004D4B9B694C4A43F0010393614A4B9B691E
:102CC00003F00103BB60BB68484A7B6A9B08023380
:102CD00052F82330FB607B6A03F003039B000F2252
:102CE00002FA03F3DB43FA681340FB607B68404A57
:102CF000934213D07B683F4A93420DD07B683E4A93
:102D0000934207D07B683D4A934201D1032306E0FA
:102D1000042304E0022302E0012300E000237A6A96
:102D200002F0030292009340FA681343FB602F49BC
:102D30007B6A9B080233FA6841F823203B685B6892
:102D400003F48013002B06D02D4B9A682C49BB69E5
:102D500013438B6006E02A4B9A68BB69DB43284922
:102D600013408B603B685B6803F40013002B06D0B4
:102D7000234BDA682249BB691343CB6006E0204B42
:102D8000DA68BB69DB431E491340CB603B685B6874
:102D900003F40033002B06D0194B5A681849BB695D
:102DA00013434B6006E0164B5A68BB69DB4314497A
:102DB00013404B603B685B6803F48033002B21D0E9
:102DC0000F4B1A680E49BB6913430B6021E000BF2B
:102DD000000032100000311000002210000021100D
:102DE000000012100000111000100240000001400D
:102DF00000080140000C0140001001400014014097
:102E0000000401400B4B1A68BB69DB4309491340BE
:102E10000B607B6A01337B623B681A687B6A22FA2B
:102E200003F3002B7FF48EAE00BF00BF2C37BD46EE
:102E300080BC70470004014080B483B000AF78606C
:102E40000B467B8013467B707B78002B03D07A88FF
:102E50007B681A6103E07B881A047B681A6100BFF3
:102E60000C37BD4680BC704780B584B000AF786039
:102E70007B68002B01D101232BE17B6893F83D3067
:102E8000DBB2002B06D17B68002283F83C207868F7
:102E9000FFF7CCF97B68242283F83D207B681B6810
:102EA0001A687B681B6822F001021A607B681B6845
:102EB0001A687B681B6842F400421A607B681B68D2
:102EC0001A687B681B6822F400421A6001F0CAFB92
:102ED000F8607B685B68814A934207D8FB68804A48
:102EE000934294BF01230023DBB206E0FB687D4AD6
:102EF000934294BF01230023DBB2002B01D00123B6
:102F0000E7E0FB68784AA2FB03239B0CBB607B686D
:102F10001B685B6823F03F017B681B68BA680A4343
:102F20005A607B681B681B6A23F03F017B685B6803
:102F30006A4A934202D8BB68013309E0BB684FF488
:102F4000967202FB03F3694AA2FB03239B09013338
:102F50007A6812680B4313627B681B68DB6923F491
:102F60004F4222F0FF027B685B685C498B4219D8B4
:102F7000FB68591E7B685B685B00B1FBF3F3591C6F
:102F800040F6FC730B40002B0AD0FB68591E7B688F
:102F90005B685B00B1FBF3F30133C3F30B0351E058
:102FA00004234FE07B689B68002B11D1FB68581EFF
:102FB0007B6859680B465B000B44B0FBF3F30133AD
:102FC000C3F30B03002B0CBF01230023DBB212E081
:102FD000FB68581E7B6859680B469B000B449900A0
:102FE0000B44B0FBF3F30133C3F30B03002B0CBF13
:102FF00001230023DBB2002B01D0012322E07B68F8
:103000009B68002B0ED1FB68581E7B6859680B46E5
:103010005B000B44B0FBF3F30133C3F30B0343F446
:1030200000430FE0FB68581E7B6859680B469B0005
:103030000B4499000B44B0FBF3F30133C3F30B03D0
:1030400043F44043796809681343CB617B681B688C
:103050001B6823F0C0017B68DA697B681B6A1A432E
:103060007B681B680A431A607B681B689B6823F4B3
:10307000034323F0FF037A6811697A68D268114329
:103080007A6812680B4393607B681B68DB6823F0E7
:10309000FF017B685A697B689B691A437B681B68E0
:1030A0000A43DA607B681B681A687B681B6842F019
:1030B00001021A607B6800221A647B68202283F870
:1030C0003D207B6800221A637B68002283F83E2043
:1030D000002318461037BD4680BD00BFA086010002
:1030E0007F841E00FF083D0083DE1B43D34D62102A
:1030F00080B588B002AFF8607A601A460B467B81D3
:1031000013463B81FFF754FB7861FB6893F83D3031
:10311000DBB2202B40F0E0807B6900931923012271
:103120007049F86800F09EFC0346002B01D0022392
:10313000D3E0FB6893F83C30012B01D10223CCE0B3
:10314000FB68012283F83C20FB681B681B6803F0C6
:103150000103012B07D0FB681B681A68FB681B681A
:1031600042F001021A60FB681B681A68FB681B6862
:1031700022F400621A60FB68212283F83D20FB687C
:10318000102283F83E20FB6800221A64FB687A68EC
:103190005A62FB683A895A85FB685B8D9AB2FB6874
:1031A0001A85FB68504ADA6279897B693A6AF8685D
:1031B00000F008FB0346002B01D001238DE0002323
:1031C0003B61FB681B685B693B61FB681B689B6933
:1031D0003B613B6966E07A69396AF86800F05CFD3A
:1031E0000346002B0DD0FB681B6C042B07D1FB683A
:1031F0001B681A68FB681B6842F400721A6001239E
:103200006BE0FB685B6A1A78FB681B681A61FB68F5
:103210005B6A5A1CFB685A62FB685B8D9BB2013B80
:103220009AB2FB685A85FB681B8D013B9AB2FB681A
:103230001A85FB681B685B6903F00403042B1BD130
:10324000FB681B8D002B17D0FB685B6A1A78FB6844
:103250001B681A61FB685B6A5A1CFB685A62FB6850
:103260005B8D9BB2013B9AB2FB685A85FB681B8D54
:10327000013B9AB2FB681A857A69396AF86800F0EE
:1032800053FD0346002B0DD0FB681B6C042B07D1AC
:10329000FB681B681A68FB681B6842F400721A60BE
:1032A00001231AE0FB681B8D002B94D1FB681B687F
:1032B0001A68FB681B6842F400721A60FB682022DF
:1032C00083F83D20FB68002283F83E20FB68002243
:1032D00083F83C20002300E0022318461837BD463F
:1032E00080BD00BF020010000000FFFF80B58CB061
:1032F00002AFF8607A601A460B467B8113463B8129
:1033000000233B62FFF754FA7862FB6893F83D3084
:10331000DBB2202B40F04B827B6A00931923012201
:103320007F49F86800F09EFB0346002B01D0022382
:103330003EE2FB6893F83C30012B01D1022337E2D7
:10334000FB68012283F83C20FB681B681B6803F0C4
:103350000103012B07D0FB681B681A68FB681B6818
:1033600042F001021A60FB681B681A68FB681B6860
:1033700022F400621A60FB68222283F83D20FB6879
:10338000102283F83E20FB6800221A64FB687A68EA
:103390005A62FB683A895A85FB685B8D9AB2FB6872
:1033A0001A85FB685F4ADA6279897B6A3A6BF8684A
:1033B00000F08AFA0346002B01D00123F8E1FB68F4
:1033C0001B8D002B13D10023FB61FB681B685B691D
:1033D000FB61FB681B689B69FB61FB69FB681B6801
:1033E0001A68FB681B6842F400721A60CCE1FB6843
:1033F0001B8D012B1ED1FB681B681A68FB681B68BC
:1034000022F480621A6072B600BF0023BB61FB68C1
:103410001B685B69BB61FB681B689B69BB61BB691F
:10342000FB681B681A68FB681B6842F400721A602C
:1034300062B635E0FB681B8D022B1ED1FB681B6852
:103440001A68FB681B6842F400621A6072B600BF1B
:1034500000237B61FB681B685B697B61FB681B6801
:103460009B697B617B69FB681B681A68FB681B684A
:1034700022F480621A6062B612E0FB681B681A6868
:10348000FB681B6842F480621A6000233B61FB68A2
:103490001B685B693B61FB681B689B693B613B691F
:1034A00072E1FB681B8D032B00F21F81FB681B8DF3
:1034B000012B23D17A6A396BF86800F07DFC034652
:1034C000002B01D0012373E1FB681B681A69FB68BC
:1034D0005B6AD2B21A70FB685B6A5A1CFB685A625C
:1034E000FB681B8D013B9AB2FB681A85FB685B8DFC
:1034F0009BB2013B9AB2FB685A8545E1FB681B8D84
:10350000022B52D17B6A00933B6B00220649F8687C
:1035100000F0A8FA0346002B08D0012348E100BFC1
:10352000020010000000FFFF0400010072B600BF9F
:10353000FB681B681A68FB681B6842F400721A601B
:10354000FB681B681A69FB685B6AD2B21A70FB6879
:103550005B6A5A1CFB685A62FB681B8D013B9AB27E
:10356000FB681A85FB685B8D9BB2013B9AB2FB68D6
:103570005A8562B600BFFB681B681A69FB685B6A04
:10358000D2B21A70FB685B6A5A1CFB685A62FB680D
:103590001B8D013B9AB2FB681A85FB685B8D9BB261
:1035A000013B9AB2FB685A85EEE07B6A00933B6B65
:1035B00000228149F86800F055FA0346002B01D03B
:1035C0000123F5E0FB681B681A68FB681B6822F49E
:1035D00080621A6072B600BFFB681B681A69FB68DC
:1035E0005B6AD2B21A70FB685B6A5A1CFB685A624B
:1035F000FB681B8D013B9AB2FB681A85FB685B8DEB
:103600009BB2013B9AB2FB685A856C4B1B68DB0886
:103610006B4AA2FB03231A0A13469B001344DA00E9
:10362000D31A3B623B6A013B3B623B6A002B18D1D9
:10363000FB6800221A63FB68202283F83D20FB68A8
:10364000002283F83E20FB681B6C43F02002FB68DD
:103650001A6462B600BFFB68002283F83C20012395
:10366000A6E0FB681B685B6903F00403042BD9D157
:10367000FB681B681A68FB681B6842F400721A60DA
:10368000FB681B681A69FB685B6AD2B21A70FB6838
:103690005B6A5A1CFB685A62FB681B8D013B9AB23D
:1036A000FB681A85FB685B8D9BB2013B9AB2FB6895
:1036B0005A8562B600BFFB681B681A69FB685B6AC3
:1036C000D2B21A70FB685B6A5A1CFB685A62FB68CC
:1036D0001B8D013B9AB2FB681A85FB685B8D9BB220
:1036E000013B9AB2FB685A854EE07A6A396BF868FA
:1036F00000F062FB0346002B01D0012358E0FB6879
:103700001B681A69FB685B6AD2B21A70FB685B6A55
:103710005A1CFB685A62FB681B8D013B9AB2FB681E
:103720001A85FB685B8D9BB2013B9AB2FB685A8598
:10373000FB681B685B6903F00403042B24D1FB685E
:103740001B8D032B07D1FB681B681A68FB681B687D
:1037500022F480621A60FB681B681A69FB685B6A66
:10376000D2B21A70FB685B6A5A1CFB685A62FB682B
:103770001B8D013B9AB2FB681A85FB685B8D9BB27F
:10378000013B9AB2FB685A85FB681B8D002B7FF4C6
:1037900088AEFB68202283F83D20FB68002283F876
:1037A0003E20FB68002283F83C20002300E0022337
:1037B00018462837BD4680BD0400010014000020D3
:1037C00089B5F81480B588B002AFF8607A603B60C4
:1037D0000B467B81FB68DB6A7B617B69082B06D02B
:1037E0007B69012B03D07B6913F5803F08D1FB680F
:1037F0001B681A68FB681B6842F480721A600BE051
:10380000FB681B6B122B07D1FB681B681A68FB68EF
:103810001B6842F480721A603B6800937B68002248
:103820004FF00111F86800F01DF90346002B0DD090
:10383000FB681B681B6803F48073B3F5807F03D1BA
:10384000FB684FF400721A64032335E0FB681B69C0
:10385000B3F5804F08D17B89DBB21A46FB681B6841
:1038600002F0FE021A611BE07B89DB11DBB203F080
:103870000603DBB263F00F03DAB2FB681B681A6160
:103880003B687A680E49F86800F066F90346002B39
:1038900001D0012310E07B89DAB2FB681B681A6152
:1038A0003B687A680749F86800F056F90346002B30
:1038B00001D0012300E0002318461837BD4680BD23
:1038C000080001000200010080B588B002AFF86076
:1038D0007A603B600B467B81FB68DB6A7B61FB683F
:1038E0001B681A68FB681B6842F480621A607B6977
:1038F000082B06D07B69012B03D07B6913F5803F31
:1039000008D1FB681B681A68FB681B6842F4807268
:103910001A600BE0FB681B6B112B07D1FB681B685F
:103920001A68FB681B6842F480721A603B68009357
:103930007B6800224FF00111F86800F093F803460D
:10394000002B0DD0FB681B681B6803F48073B3F574
:10395000807F03D1FB684FF400721A64032379E07F
:10396000FB681B69B3F5804F08D17B89DBB243F05C
:103970000103DAB2FB681B681A615FE07B89DB1127
:10398000DBB203F00603DBB263F00F03DAB2FB68CD
:103990001B681A613B687A683049F86800F0DCF807
:1039A0000346002B01D0012354E07B89DAB2FB6887
:1039B0001B681A613B687A682949F86800F0CCF8FE
:1039C0000346002B01D0012344E000233B61FB6848
:1039D0001B685B693B61FB681B689B693B613B69DA
:1039E000FB681B681A68FB681B6842F480721A60E7
:1039F0003B6800937B6800224FF00111F86800F0EB
:103A000031F80346002B0DD0FB681B681B6803F4DC
:103A10008073B3F5807F03D1FB684FF400721A64A2
:103A2000032317E07B89DB11DBB203F00603DBB273
:103A300063F00E03DAB2FB681B681A613B687A68B0
:103A40000749F86800F088F80346002B01D00123ED
:103A500000E0002318461837BD4680BD080001006D
:103A60000200010080B584B000AFF860B9603B602F
:103A70001346FB7148E03B68B3F1FF3F44D0FEF7CB
:103A800097FE0246BB69D31A3A689A4202D33B6852
:103A9000002B39D1BB681B0CDBB2012B0DD1FB68AD
:103AA0001B685B69DA43BB6813409BB2002B0CBFF9
:103AB00001230023DBB21A460CE0FB681B689B69FC
:103AC000DA43BB6813409BB2002B0CBF01230023D9
:103AD000DBB21A46FB799A4216D1FB6800221A63C0
:103AE000FB68202283F83D20FB68002283F83E20FB
:103AF000FB681B6C43F02002FB681A64FB68002221
:103B000083F83C20012323E0BB681B0CDBB2012BB4
:103B10000DD1FB681B685B69DA43BB6813409BB23D
:103B2000002B0CBF01230023DBB21A460CE0FB681C
:103B30001B689B69DA43BB6813409BB2002B0CBF28
:103B400001230023DBB21A46FB799A4293D000236B
:103B500018461037BD4680BD80B584B000AFF86010
:103B6000B9607A603B6071E0FB681B685B6903F4D5
:103B70008063B3F5806F23D1FB681B681A68FB680C
:103B80001B6842F400721A60FB681B686FF4806265
:103B90005A61FB6800221A63FB68202283F83D20EB
:103BA000FB68002283F83E20FB681B6C43F0040294
:103BB000FB681A64FB68002283F83C20012367E05D
:103BC0007B68B3F1FF3F41D0FEF7F2FD02463B6850
:103BD000D31A7A689A4202D37B68002B36D1BB682D
:103BE0001B0CDBB2012B0CD1FB681B685B69DA4351
:103BF000BB6813409BB2002B14BF01230023DBB230
:103C00000BE0FB681B689B69DA43BB6813409BB2FF
:103C1000002B14BF01230023DBB2002B16D0FB685E
:103C200000221A63FB68202283F83D20FB680022F3
:103C300083F83E20FB681B6C43F02002FB681A648B
:103C4000FB68002283F83C20012321E0BB681B0CA9
:103C5000DBB2012B0CD1FB681B685B69DA43BB68E4
:103C600013409BB2002B14BF01230023DBB20BE0F7
:103C7000FB681B689B69DA43BB6813409BB2002B4F
:103C800014BF01230023DBB2002B7FF46DAF0023B0
:103C900018461037BD4680BD80B584B000AFF860CF
:103CA000B9607A6034E0F86800F0E3F80346002B6E
:103CB00001D0012334E0BB68B3F1FF3F28D0FEF709
:103CC00077FD02467B68D31ABA689A4202D3BB6872
:103CD000002B1DD1FB681B685B6903F08003802B00
:103CE00016D0FB6800221A63FB68202283F83D206F
:103CF000FB68002283F83E20FB681B6C43F0200227
:103D0000FB681A64FB68002283F83C20012307E06B
:103D1000FB681B685B6903F08003802BC3D1002321
:103D200018461037BD4680BD80B584B000AFF8603E
:103D3000B9607A6034E0F86800F09BF80346002B25
:103D400001D0012334E0BB68B3F1FF3F28D0FEF778
:103D50002FFD02467B68D31ABA689A4202D3BB6829
:103D6000002B1DD1FB681B685B6903F00403042B67
:103D700016D0FB6800221A63FB68202283F83D20DE
:103D8000FB68002283F83E20FB681B6C43F0200296
:103D9000FB681A64FB68002283F83C20012307E0DB
:103DA000FB681B685B6903F00403042BC3D1002389
:103DB00018461037BD4680BD80B584B000AFF860AE
:103DC000B9607A6049E0FB681B685B6903F0100327
:103DD000102B19D1FB681B686FF010025A61FB6849
:103DE00000221A63FB68202283F83D20FB68002232
:103DF00083F83E20FB681A6CFB681A64FB6800229B
:103E000083F83C20012330E0FEF7D2FC02467B68B9
:103E1000D31ABA689A4202D3BB68002B1DD1FB6843
:103E20001B685B6903F04003402B16D0FB6800223F
:103E30001A63FB68202283F83D20FB68002283F888
:103E40003E20FB681B6C43F02002FB681A64FB6891
:103E5000002283F83C20012307E0FB681B685B69B4
:103E600003F04003402BAED1002318461037BD4667
:103E700080BD80B483B000AF78607B681B685B69ED
:103E800003F48063B3F5806F1BD17B681B686FF40C
:103E900080625A617B6800221A637B68202283F863
:103EA0003D207B68002283F83E207B681B6C43F03A
:103EB00004027B681A647B68002283F83C2001239B
:103EC00000E0002318460C37BD4680BC7047000058
:103ED00080B586B000AF78607B68002B01D10123EC
:103EE00072E27B681B6803F00103002B00F08780FF
:103EF000924B5B6803F00C03042B0CD08F4B5B6878
:103F000003F00C03082B12D18C4B5B6803F4803355
:103F1000B3F5803F0BD1894B1B6803F40033002BB2
:103F20006CD07B685B68002B68D101234CE27B6816
:103F30005B68B3F5803F06D1804B1B687F4A43F432
:103F4000803313602EE07B685B68002B0CD17B4BC9
:103F50001B687A4A23F480331360784B1B68774AD6
:103F600023F4802313601DE07B685B68B3F5A02F0A
:103F70000CD1724B1B68714A43F4802313606F4B62
:103F80001B686E4A43F4803313600BE06B4B1B6875
:103F90006A4A23F480331360684B1B68674A23F432
:103FA000802313607B685B68002B13D0FEF700FC56
:103FB000386108E0FEF7FCFB02463B69D31A642B2C
:103FC00001D9032300E25D4B1B6803F40033002B8F
:103FD000F0D014E0FEF7ECFB386108E0FEF7E8FBF8
:103FE00002463B69D31A642B01D90323ECE1534BFE
:103FF0001B6803F40033002BF0D100E000BF7B68A6
:104000001B6803F00203002B63D04C4B5B6803F08A
:104010000C03002B0BD0494B5B6803F00C03082BFF
:104020001CD1464B5B6803F48033002B16D1434B05
:104030001B6803F00203002B05D07B681B69012B72
:1040400001D00123C0E13D4B1B6823F0F8027B68DF
:104050005B69DB00394913430B603AE07B681B69FD
:10406000002B20D0364B01221A60FEF7A1FB3861ED
:1040700008E0FEF79DFB02463B69D31A022B01D9EB
:104080000323A1E12D4B1B6803F00203002BF0D0AA
:104090002A4B1B6823F0F8027B685B69DB00274929
:1040A00013430B6015E0264B00221A60FEF780FBDD
:1040B000386108E0FEF77CFB02463B69D31A022B0D
:1040C00001D9032380E11D4B1B6803F00203002B81
:1040D000F0D17B681B6803F00803002B3AD07B68A3
:1040E0009B69002B19D0174B01221A60FEF760FB69
:1040F000386108E0FEF75CFB02463B69D31A022BED
:1041000001D9032360E10D4B5B6A03F00203002B2E
:10411000F0D0012000F0FEFA1CE00A4B00221A60E9
:10412000FEF746FB38610FE0FEF742FB02463B69B3
:10413000D31A022B08D9032346E100BF0010024026
:104140000000424280044242924B5B6A03F0020349
:10415000002BE9D17B681B6803F00403002B00F0FF
:10416000A6800023FB758B4BDB6903F08053002B8B
:104170000DD1884BDB69874A43F08053D361854B6F
:10418000DB6903F08053BB60BB680123FB75824B86
:104190001B6803F48073002B18D17F4B1B687E4A89
:1041A00043F480731360FEF703FB386108E0FEF709
:1041B000FFFA02463B69D31A642B01D9032303E1BA
:1041C000754B1B6803F48073002BF0D07B68DB68B1
:1041D000012B06D16F4B1B6A6E4A43F00103136239
:1041E0002DE07B68DB68002B0CD16A4B1B6A694AA7
:1041F00023F001031362674B1B6A664A23F0040332
:1042000013621CE07B68DB68052B0CD1614B1B6AD9
:10421000604A43F0040313625E4B1B6A5D4A43F03D
:10422000010313620BE05B4B1B6A5A4A23F0010344
:104230001362584B1B6A574A23F0040313627B68CE
:10424000DB68002B15D0FEF7B3FA38610AE0FEF701
:10425000AFFA02463B69D31A41F28832934201D940
:104260000323B1E04B4B1B6A03F00203002BEED09B
:1042700014E0FEF79DFA38610AE0FEF799FA02466B
:104280003B69D31A41F28832934201D903239BE060
:10429000404B1B6A03F00203002BEED1FB7D012B88
:1042A00005D13C4BDB693B4A23F08053D3617B68EB
:1042B000DB69002B00F08780364B5B6803F00C0352
:1042C000082B61D07B68DB69022B46D1334B00227F
:1042D0001A60FEF76DFA386108E0FEF769FA0246E7
:1042E0003B69D31A022B01D903236DE0294B1B68CC
:1042F00003F00073002BF0D17B681B6AB3F5803F9D
:1043000008D1244B5B6823F400327B689B68214909
:1043100013434B601F4B5B6823F474127B68196A6C
:104320007B685B6A0B431B4913434B601B4B0122A9
:104330001A60FEF73DFA386108E0FEF739FA0246E6
:104340003B69D31A022B01D903233DE0114B1B68B3
:1043500003F00073002BF0D035E0104B00221A6000
:10436000FEF726FA386108E0FEF722FA02463B69BA
:10437000D31A022B01D9032326E0064B1B6803F056
:104380000073002BF0D11EE07B68DB69012B07D1A5
:10439000012319E00010024000700040600042421A
:1043A0000B4B5B68FB60FB6803F480327B681B6A25
:1043B0009A4206D1FB6803F470127B685B6A9A42EA
:1043C00001D0012300E0002318461837BD4680BD08
:1043D0000010024080B584B000AF786039607B681F
:1043E000002B01D10123D0E06A4B1B6803F00703C7
:1043F0003A689A4210D9674B1B6823F00702654957
:104400003B6813430B60634B1B6803F007033A6878
:104410009A4201D00123B8E07B681B6803F00203D5
:10442000002B20D07B681B6803F00403002B05D011
:10443000594B5B68584A43F4E06353607B681B68E0
:1044400003F00803002B05D0534B5B68524A43F43A
:1044500060535360504B5B6823F0F0027B689B68AD
:104460004D4913434B607B681B6803F00103002B2D
:1044700040D07B685B68012B07D1474B1B6803F476
:104480000033002B15D101237FE07B685B68022B92
:1044900007D1414B1B6803F00073002B09D10123A6
:1044A00073E03D4B1B6803F00203002B01D1012395
:1044B0006BE0394B5B6823F003027B685B6836492D
:1044C00013434B60FEF774F9F8600AE0FEF770F9E9
:1044D0000246FB68D31A41F28832934201D9032382
:1044E00053E02D4B5B6803F00C027B685B689B001C
:1044F0009A42EBD1274B1B6803F007033A689A42B4
:1045000010D2244B1B6823F0070222493B68134357
:104510000B60204B1B6803F007033A689A4201D0F6
:10452000012332E07B681B6803F00403002B08D0F2
:10453000194B5B6823F4E0627B68DB681649134320
:104540004B607B681B6803F00803002B09D0124BFB
:104550005B6823F460527B681B69DB000E491343E0
:104560004B6000F021F802460B4B5B681B0903F01F
:104570000F030A49CB5C22FA03F3094A1360094B83
:104580001B681846FDF75EFF002318461037BD462E
:1045900080BD00BF00200240001002404CDE000839
:1045A000140000201800002080B487B000AF002362
:1045B000FB600023BB6000237B6100237B60002342
:1045C0003B611E4B5B68FB60FB6803F00C03042B34
:1045D00002D0082B03D027E0194B3B6127E0FB6892
:1045E0009B0C03F00F03174AD35C7B60FB6803F45A
:1045F0008033002B10D0114B5B685B0C03F0010380
:10460000114AD35CBB607B680D4A03FB02F2BB68B6
:10461000B2FBF3F37B6104E07B680C4A02FB03F31B
:104620007B617B693B6102E0054B3B6100BF3B69FD
:1046300018461C37BD4680BC704700BF00100240C2
:1046400000127A0064DE000874DE000800093D00F4
:1046500080B400AF024B1B681846BD4680BC704753
:104660001400002080B500AFFFF7F2FF0246054BB3
:104670005B681B0A03F007030349CB5C22FA03F3D0
:10468000184680BD001002405CDE000880B500AF17
:10469000FFF7DEFF0246054B5B68DB0A03F007030A
:1046A0000349CB5C22FA03F3184680BD0010024098
:1046B0005CDE000880B483B000AF786039607B684E
:1046C0000F221A60114B5B6803F003027B685A608B
:1046D0000E4B5B6803F0F0027B689A600B4B5B68E3
:1046E00003F4E0627B68DA60084B5B68DB0803F484
:1046F000E0627B681A61064B1B6803F007023B68A7
:104700001A6000BF0C37BD4680BC704700100240E5
:104710000020024080B485B000AF78600A4B1B686F
:104720000A4AA2FB03235B0A7A6802FB03F3FB60DD
:1047300000BFFB685A1EFA60002BF9D100BF00BF12
:104740001437BD4680BC704714000020D34D621062
:1047500080B582B000AF78607B68002B01D1012367
:1047600041E07B6893F83D30DBB2002B06D17B68DB
:10477000002283F83C207868FDF7C4FD7B680222A4
:1047800083F83D207B681A687B680433194610461D
:1047900000F018FC7B68012283F846207B68012228
:1047A00083F83E207B68012283F83F207B6801224A
:1047B00083F840207B68012283F841207B68012236
:1047C00083F842207B68012283F843207B68012222
:1047D00083F844207B68012283F845207B6801220E
:1047E00083F83D20002318460837BD4680BD0000F1
:1047F00080B485B000AF78607B6893F83D30DBB261
:10480000012B01D001233AE07B68022283F83D208E
:104810007B681B68DA687B681B6842F00102DA601B
:104820007B681B68184A93420ED07B681B68B3F103
:10483000804F09D07B681B68144A934204D07B6880
:104840001B68134A934211D17B681B689B6803F075
:104850000703FB60FB68062B10D07B681B681A6897
:104860007B681B6842F001021A6007E07B681B68E6
:104870001A687B681B6842F001021A600023184620
:104880001437BD4680BC7047002C01400004004036
:104890000008004080B582B000AF78607B68002BD4
:1048A00001D1012341E07B6893F83D30DBB2002B5E
:1048B00006D17B68002283F83C20786800F039F844
:1048C0007B68022283F83D207B681A687B6804338A
:1048D0001946104600F076FB7B68012283F84620DB
:1048E0007B68012283F83E207B68012283F83F2009
:1048F0007B68012283F840207B68012283F84120F5
:104900007B68012283F842207B68012283F84320E0
:104910007B68012283F844207B68012283F84520CC
:104920007B68012283F83D20002318460837BD46E6
:1049300080BD80B483B000AF786000BF0C37BD4647
:1049400080BC704780B584B000AF786039603B6848
:10495000002B09D17B6893F83E30DBB2012B14BFEA
:1049600001230023DBB222E03B68042B09D17B68E2
:1049700093F83F30DBB2012B14BF01230023DBB2DD
:1049800015E03B68082B09D17B6893F84030DBB217
:10499000012B14BF01230023DBB208E07B6893F8EE
:1049A0004130DBB2012B14BF01230023DBB2002B0B
:1049B00001D001235EE03B68002B04D17B6802221A
:1049C00083F83E2013E03B68042B04D17B6802226D
:1049D00083F83F200BE03B68082B04D17B68022260
:1049E00083F8402003E07B68022283F841207B6843
:1049F0001B6801223968184600F070FD7B681B684F
:104A00001E4A934207D17B681B685A6C7B681B68FF
:104A100042F400425A647B681B68184A93420ED0E5
:104A20007B681B68B3F1804F09D07B681B68144A10
:104A3000934204D07B681B68124A934211D17B6871
:104A40001B689B6803F00703FB60FB68062B10D014
:104A50007B681B681A687B681B6842F001021A6059
:104A600007E07B681B681A687B681B6842F00102DC
:104A70001A60002318461037BD4680BD002C014047
:104A8000000400400008004080B584B000AF7860AA
:104A90007B681B68DB68FB607B681B681B69BB600D
:104AA000BB6803F00203002B20D0FB6803F0020375
:104AB000002B1BD07B681B686FF002021A617B68B9
:104AC00001221A777B681B689B6903F00303002BA4
:104AD00003D0786800F05AFA05E0786800F04DFAE3
:104AE000786800F05CFA7B6800221A77BB6803F0F4
:104AF0000403002B20D0FB6803F00403002B1BD021
:104B00007B681B686FF004021A617B6802221A77C7
:104B10007B681B689B6903F44073002B03D07868A3
:104B200000F034FA05E0786800F027FA786800F0C1
:104B300036FA7B6800221A77BB6803F00803002B63
:104B400020D0FB6803F00803002B1BD07B681B6898
:104B50006FF008021A617B6804221A777B681B6871
:104B6000DB6903F00303002B03D0786800F00EFA32
:104B700005E0786800F001FA786800F010FA7B68C8
:104B800000221A77BB6803F01003002B20D0FB68CB
:104B900003F01003002B1BD07B681B686FF0100222
:104BA0001A617B6808221A777B681B68DB6903F44B
:104BB0004073002B03D0786800F0E8F905E07868CE
:104BC00000F0DBF9786800F0EAF97B6800221A77D8
:104BD000BB6803F00103002B0CD0FB6803F001035A
:104BE000002B07D07B681B686FF001021A617868A0
:104BF000FDF7CCFABB6803F08003002B0CD0FB68F8
:104C000003F08003002B07D07B681B686FF08002E5
:104C10001A61786800F0EDFCBB6803F04003002BDC
:104C20000CD0FB6803F04003002B07D07B681B68A7
:104C30006FF040021A61786800F0BAF9BB6803F0BF
:104C40002003002B0CD0FB6803F02003002B07D0BF
:104C50007B681B686FF020021A61786800F0C0FC66
:104C600000BF1037BD4680BD80B586B000AFF8608C
:104C7000B9607A600023FB75FB6893F83C30012B28
:104C800001D10223AEE0FB68012283F83C207B685F
:104C90000C2B00F29F8001A252F823F0D14C0008A7
:104CA000D54D0008D54D0008D54D0008114D000820
:104CB000D54D0008D54D0008D54D0008534D0008CE
:104CC000D54D0008D54D0008D54D0008934D00087E
:104CD000FB681B68B968184600F0E2F9FB681B68BE
:104CE0009A69FB681B6842F008029A61FB681B68BE
:104CF0009A69FB681B6822F004029A61FB681B68D2
:104D00009969BB681A69FB681B680A439A6164E089
:104D1000FB681B68B968184600F028FAFB681B6836
:104D20009A69FB681B6842F400629A61FB681B6821
:104D30009A69FB681B6822F480629A61FB681B68B1
:104D40009969BB681B691A02FB681B680A439A6170
:104D500043E0FB681B68B968184600F071FAFB680D
:104D60001B68DA69FB681B6842F00802DA61FB68BD
:104D70001B68DA69FB681B6822F00402DA61FB68D1
:104D80001B68D969BB681A69FB681B680A43DA614A
:104D900023E0FB681B68B968184600F0BBFAFB68A3
:104DA0001B68DA69FB681B6842F40062DA61FB6821
:104DB0001B68DA69FB681B6822F48062DA61FB68B1
:104DC0001B68D969BB681B691A02FB681B680A4328
:104DD000DA6102E00123FB7500BFFB68002283F863
:104DE0003C20FB7D18461837BD4680BD80B584B099
:104DF00000AF786039600023FB737B6893F83C3028
:104E0000012B01D10223B4E07B68012283F83C200E
:104E10007B68022283F83D207B681B689B68BB602F
:104E2000BB6823F07703BB60BB6823F47F43BB60A0
:104E30007B681B68BA689A603B681B68B3F5005FC3
:104E40003ED0B3F5005F00F28780B3F5805F00F0DD
:104E50008680B3F5805F7FD8702B1AD0702B7BD8FB
:104E6000602B50D0602B77D8502B3CD0502B73D870
:104E7000402B58D0402B6FD8302B64D0302B6BD8C0
:104E8000202B60D0202B67D8002B5CD0102B5AD061
:104E900062E07B6818683B6899683B685A683B68C1
:104EA000DB6800F0FCFA7B681B689B68BB60BB6832
:104EB00043F07703BB607B681B68BA689A604FE079
:104EC0007B6818683B6899683B685A683B68DB6890
:104ED00000F0E5FA7B681B689A687B681B6842F4FF
:104EE00080429A603CE07B6818683B6859683B6880
:104EF000DB681A4600F05CFA7B681B685021184694
:104F000000F0B3FA2CE07B6818683B6859683B688E
:104F1000DB681A4600F07AFA7B681B686021184645
:104F200000F0A3FA1CE07B6818683B6859683B688E
:104F3000DB681A4600F03CFA7B681B684021184683
:104F400000F093FA0CE07B681A683B681B6819460E
:104F5000104600F08AFA03E00123FB7300E000BF73
:104F60007B68012283F83D207B68002283F83C2087
:104F7000FB7B18461037BD4680BD80B483B000AFC0
:104F8000786000BF0C37BD4680BC704780B483B0EA
:104F900000AF786000BF0C37BD4680BC704780B45E
:104FA00083B000AF786000BF0C37BD4680BC70474F
:104FB00080B483B000AF786000BF0C37BD4680BCC2
:104FC0007047000080B485B000AF786039607B68BE
:104FD0001B68FB607B682F4A93420BD07B68B3F160
:104FE000804F07D07B682C4A934203D07B682B4AC2
:104FF000934208D1FB6823F07003FB603B685B6859
:10500000FA681343FB607B68224A93420BD07B68AB
:10501000B3F1804F07D07B681F4A934203D07B686F
:105020001E4A934208D1FB6823F44073FB603B683F
:10503000DB68FA681343FB60FB6823F080023B687F
:105040005B691343FB607B68FA681A603B689A6887
:105050007B68DA623B681A687B689A627B680D4AF3
:10506000934203D13B681A697B681A637B6801220B
:105070005A617B681B6903F00103002B05D07B6834
:105080001B6923F001027B681A6100BF1437BD461B
:1050900080BC7047002C0140000400400008004024
:1050A00080B487B000AF786039607B681B6A7B6131
:1050B0007B681B6A23F001027B681A627B685B686D
:1050C0003B617B689B69FB60FB6823F07003FB60BE
:1050D000FB6823F00303FB603B681B68FA6813431B
:1050E000FB607B6923F002037B613B689B687A6904
:1050F00013437B617B681C4A93420CD17B6923F08C
:1051000008037B613B68DB687A6913437B617B69D9
:1051100023F004037B617B68134A934211D13B69FE
:1051200023F480733B613B6923F400733B613B686C
:105130005B693A6913433B613B689B693A69134376
:105140003B617B683A695A607B68FA689A613B68A0
:105150005A687B685A637B687A691A6200BF1C3799
:10516000BD4680BC704700BF002C014080B487B0B2
:1051700000AF786039607B681B6A7B617B681B6A63
:1051800023F010027B681A627B685B683B617B6876
:105190009B69FB60FB6823F4E043FB60FB6823F43E
:1051A0004073FB603B681B681B02FA681343FB609B
:1051B0007B6923F020037B613B689B681B017A6954
:1051C00013437B617B681D4A93420DD17B6923F0B9
:1051D00080037B613B68DB681B017A6913437B6159
:1051E0007B6923F040037B617B68144A934213D1AF
:1051F0003B6923F480633B613B6923F400633B61BB
:105200003B685B699B003A6913433B613B689B6960
:105210009B003A6913433B617B683A695A607B683B
:10522000FA689A613B685A687B689A637B687A6916
:105230001A6200BF1C37BD4680BC7047002C01407D
:1052400080B487B000AF786039607B681B6A7B618F
:105250007B681B6A23F480727B681A627B685B68D8
:105260003B617B68DB69FB60FB6823F07003FB60DC
:10527000FB6823F00303FB603B681B68FA68134379
:10528000FB607B6923F400737B613B689B681B02B6
:105290007A6913437B617B681D4A93420DD17B6918
:1052A00023F400637B613B68DB681B027A6913436C
:1052B0007B617B6923F480637B617B68144A934242
:1052C00013D13B6923F480533B613B6923F40053C2
:1052D0003B613B685B691B013A6913433B613B6877
:1052E0009B691B013A6913433B617B683A695A60C9
:1052F0007B68FA68DA613B685A687B68DA637B68C6
:105300007A691A6200BF1C37BD4680BC704700BF77
:10531000002C014080B487B000AF786039607B68B2
:105320001B6A3B617B681B6A23F480527B681A62AC
:105330007B685B687B617B68DB69FB60FB6823F4EF
:10534000E043FB60FB6823F44073FB603B681B6831
:105350001B02FA681343FB603B6923F400533B6173
:105360003B689B681B033A6913433B617B680F4AA8
:10537000934209D17B6923F480437B613B685B697D
:105380009B017A6913437B617B687A695A607B6809
:10539000FA68DA613B685A687B681A647B683A6924
:1053A0001A6200BF1C37BD4680BC7047002C01400C
:1053B00080B487B000AFF860B9607A60FB681B6AA0
:1053C0007B61FB681B6A23F00102FB681A62FB68C1
:1053D0009B693B613B6923F0F0033B617B681B01E8
:1053E0003A6913433B617B6923F00A037B617A6965
:1053F000BB6813437B61FB683A699A61FB687A6911
:105400001A6200BF1C37BD4680BC704780B487B0AD
:1054100000AFF860B9607A60FB681B6A7B61FB686B
:105420001B6A23F01002FB681A62FB689B693B61F0
:105430003B6923F470433B617B681B033A69134368
:105440003B617B6923F0A0037B61BB681B017A6928
:1054500013437B61FB683A699A61FB687A691A6257
:1054600000BF1C37BD4680BC704780B485B000AF1C
:10547000786039607B689B68FB60FB6823F0700391
:10548000FB603A68FB68134343F00703FB607B68EB
:10549000FA689A6000BF1437BD4680BC704780B47C
:1054A00087B000AFF860B9607A603B60FB689B68CA
:1054B0007B617B6923F47F437B613B681A027B68D5
:1054C0001A43BB6813437A6913437B61FB687A69AB
:1054D0009A6000BF1C37BD4680BC704780B487B05F
:1054E00000AFF860B9607A60BB6803F01F03012267
:1054F00002FA03F37B61FB681A6A7B69DB431A409B
:10550000FB681A62FB681A6ABB6803F01F037968BC
:1055100001FA03F31A43FB681A6200BF1C37BD4649
:1055200080BC704780B485B000AF786039607B681C
:1055300093F83C30012B01D1022346E07B68012225
:1055400083F83C207B68022283F83D207B681B683F
:105550005B68FB607B681B689B68BB60FB6823F033
:105560007003FB603B681B68FA681343FB607B6851
:105570001B68FA685A607B681B68164A93420ED013
:105580007B681B68B3F1804F09D07B681B68124AA7
:10559000934204D07B681B68104A93420CD1BB68CD
:1055A00023F08003BB603B685B68BA681343BB6051
:1055B0007B681B68BA689A607B68012283F83D208B
:1055C0007B68002283F83C20002318461437BD4630
:1055D00080BC7047002C01400004004000080040DF
:1055E00080B483B000AF786000BF0C37BD4680BC8C
:1055F000704780B483B000AF786000BF0C37BD4601
:1056000080BC704780B582B000AF78607B68002BAB
:1056100001D1012342E07B6893F84130DBB2002BDB
:1056200006D17B68002283F840207868FCF7B6FE3C
:105630007B68242283F841207B681B68DA687B68DA
:105640001B6822F40052DA60786800F0B7FD7B68CE
:105650001B681A697B681B6822F490421A617B6898
:105660001B685A697B681B6822F02A025A617B68B2
:105670001B68DA687B681B6842F40052DA607B685A
:1056800000225A647B68202283F841207B68202214
:1056900083F842207B6800225A63002318460837AB
:1056A000BD4680BD80B58AB002AFF860B9603B608E
:1056B0001346FB8000237B61FB6893F84130DBB22B
:1056C000202B75D1BB68002B02D0FB88002B01D1A9
:1056D00001236EE0FB6800225A64FB68212283F8F4
:1056E0004120FDF765F87861FB68FA889A84FB68C9
:1056F000FA88DA84FB689B68B3F5805F08D1FB68A1
:105700001B69002B04D10023FB61BB68BB6103E074
:10571000BB68FB610023BB612EE03B6800937B69A3
:1057200000228021F86800F01CFB0346002B05D006
:10573000FB68202283F8412003233AE0FB69002B19
:105740000BD1BB691B881A46FB681B68C2F30802B1
:105750005A60BB690233BB6107E0FB691A78FB68DA
:105760001B685A60FB690133FB61FB68DB8C9BB2F1
:10577000013B9AB2FB68DA84FB68DB8C9BB2002B9E
:10578000CBD13B6800937B6900224021F86800F090
:10579000E8FA0346002B05D0FB68202283F841205D
:1057A000032306E0FB68202283F84120002300E069
:1057B000022318462037BD4680BD80B584B000AFB7
:1057C000F860B9601346FB80FB6893F84230DBB2A7
:1057D000202B12D1BB68002B02D0FB88002B01D1FB
:1057E00001230BE0FB6800221A63FB881A46B968A4
:1057F000F86800F00FFB034600E00223184610375C
:10580000BD4680BD80B5BAB000AF78607B681B68CC
:105810001B68C7F8E4307B681B68DB68C7F8E030BA
:105820007B681B685B69C7F8DC300023C7F8D83099
:105830000023C7F8D430D7F8E43003F00F03C7F8DB
:10584000D830D7F8D830002B0FD1D7F8E43003F098
:105850002003002B09D0D7F8E03003F02003002B01
:1058600003D0786800F0ECFB5BE2D7F8D830002B6F
:1058700000F0DE80D7F8DC3003F00103002B06D106
:10588000D7F8E03003F49073002B00F0D180D7F804
:10589000E43003F00103002B0BD0D7F8E03003F421
:1058A0008073002B05D07B685B6C43F001027B6842
:1058B0005A64D7F8E43003F00403002B0BD0D7F878
:1058C000DC3003F00103002B05D07B685B6C43F0F8
:1058D00002027B685A64D7F8E43003F00203002B1D
:1058E0000BD0D7F8DC3003F00103002B05D07B6828
:1058F0005B6C43F004027B685A64D7F8E43003F031
:105900000803002B11D0D7F8E03003F02003002B60
:1059100005D1D7F8DC3003F00103002B05D07B68FC
:105920005B6C43F008027B685A647B685B6C002BFD
:1059300000F0F281D7F8E43003F02003002B08D008
:10594000D7F8E03003F02003002B02D0786800F095
:1059500077FB7B681B685B6903F04003002B14BF77
:1059600001230023DBB2C7F8D4307B685B6C03F003
:105970000803002B03D1D7F8D430002B4FD0786820
:1059800000F081FA7B681B685B6903F04003002B21
:1059900041D07B681B681433C7F89C30D7F89C3023
:1059A00053E8003FC7F89830D7F8983023F0400309
:1059B000C7F8D0307B681B681433D7F8D020C7F8FD
:1059C000A820C7F8A430D7F8A410D7F8A82041E839
:1059D0000023C7F8A030D7F8A030002BD9D17B68BE
:1059E000DB6B002B13D07B68DB6B7E4A5A637B68D2
:1059F000DB6B1846FDF724F80346002B16D07B68B6
:105A0000DB6B5B6B7A68D26B104698470EE0786868
:105A100000F093F90AE0786800F08FF906E0786802
:105A200000F08BF97B6800225A6475E100BF73E1D6
:105A30007B681B6B012B40F04F81D7F8E43003F0FB
:105A40001003002B00F04881D7F8E03003F010037A
:105A5000002B00F041810023BB607B681B681B6842
:105A6000BB607B681B685B68BB60BB687B681B684E
:105A70005B6903F04003002B00F0B6807B68DB6BB2
:105A80001B685B68A7F8BE30B7F8BE30002B00F08B
:105A900045817B689B8DB7F8BE209A4280F03E819D
:105AA0007B68B7F8BE20DA857B68DB6B9B69202BAF
:105AB00000F088807B681B680C33C7F88830D7F803
:105AC000883053E8003FC7F88430D7F8843023F497
:105AD0008073C7F8B8307B681B680C33D7F8B820E0
